:020000020000FC
:200000003444C0061400E0DE344480061487B0D634448000149390103444C0001497D018A7
:200020002603C010150000100401801036FDFF10405F8010406D801006FF3F004300E0D028
:2000400004FFBF003A7084180C02C02026010018940080104500A0D04300A0D07444C00067
:200060000400E4183500801837008018030060D13A708428430060D13AC00410FA9004103A
:2000800054004029450060D1CC3F4029350040194300A0D104FF7F013A704A310C01802121
:2000A0002601003094004029450060D1430060D135004019370040190300A0D13A704A314B
:2000C0002601002814018010430060D154004029450060D1CC3F4029350040194300A0D1CF
:2000E00004FF7F013A704A318C0080212601003094004029450060D1430060D1350040195F
:20010000370040190300A0D13A704A312601002894008010430060D154004029450060D19C
:20012000CC3F4029350040194300A0D104FF7F014C0000213A704A312601002094004029B0
:20014000450060D1430020D13500001937000019030060D13A70082926010020540080101D
:20016000430020D154000021450020D1CC3F0021350000193A2800F84300E0D044FFBF00D7
:200180003A7084180C02C02026010018940080104500A0D04300A0D07444C0000400E418E8
:2001A0003500801837008018030060D14300A0D13A7084283AC00410FA90041004FF7F0136
:2001C0003A704A31450060D1CC3F402935004019430060D154004029450060D1CC3F402967
:2001E000350040194300A0D144FF7F013A704A310C0180212601003094004029450060D15D
:20020000430060D135004019370040190300A0D13A704A3126010028140180104300A0D10B
:2002200004FF7F013A704A31450060D1CC3F402935004019430060D154004029450060D1F7
:20024000CC3F4029350040194300A0D144FF7F013A704A318C00802126010030940040297F
:20026000450060D1430060D135004019370040190300A0D13A704A3126010028940080106A
:200280004300A0D104FF7F013A704A31450060D1CC3F402935004019430060D15400402959
:2002A000450060D1CC3F4029350040194300A0D144FF7F014C0000213A704A312601002076
:2002C00094004029450060D1430020D13500001937000019030060D13A7008292601002083
:2002E00054008010430060D104FF3F013A700829450020D1CC3F002135000019430020D1A4
:2003000054000021450020D1CC3F0021350000193A2800F8040C80203A880710CC3F80103A
:200320001C20801004E0BF10440E40010E018028C415C020CC3F00191C20002104E03F2176
:20034000017080103444000104F6FFDE04081021150140DC1509C0DF150800DF1507C0DD6B
:20036000150680DD150540DD150400DD1503C0DC150280DC150000DC807480104300A0D089
:20038000744440040400648C35008088344480053444C0053A8827003A8821003A8839002F
:2003A000840D4005C41890B5040BD0BDC4168004005B801004F4FF10CC3FC0183A8829107C
:2003C0003605C0A83A88C9B03A88C7B8030000210300C018060200003A8807003A88090063
:2003E000CC3F40811C204029CC3F00141C20008404E07F2904E03F84260D00284417800044
:2004000026688080260B8084CC3FC0181C20C01804E0FF18265B0018CC3F00E71C2000E779
:2004200004E03FE71E5780E43A882720065500001E048084CC3F00E71C2000E704E03FE730
:200440001E5480E4440080002616809826030098840080002629809806440000CC3FC01855
:200460001C20C01804E0FF181E120018040F800026068080840F800026078080840B800017
:200480001E3E80803A880900061300004300E0D0C4FDBF00061400004300A0D01402801036
:2004A000062F0000CC3FC0181C20C01804E0FF1826020018C003801006300000040F8000B9
:2004C00026078080840F800026098080840B80001E2A8080C4030001C00380100615000020
:2004E0004300E0D0C4F7BF003A708418061C00004300A0D01408801006190000CC3FC018C6
:200500001C20C01804E0FF182602001880178010061A0000040F800026098080840F800070
:20052000260C8080840B80001E1480803A88090080178010CC3F0011403180100613000020
:200540004300A0D0CC1F80104500A0D035008088060E00004300E0D004E0BF003AB084184B
:200560004500A0D0CC3F801006F83F00C40F0001007080103A880980007080101E038084AA
:200580000608000044000004060400003A8821000602000044000004C41600053A8839A04E
:2005A00006833F003A8821003A88390006803F0034448000047190101702C01104FEFFDEFA
:2005C00034440001440080013A880BD8048810211501C0DFC07A80100E028000070080D80D
:2005E00006010000C4FFBF001701C0DF0402C0DE3A2800F804FFFFDE3444000134424001AD
:200600001500C0DF04311021046945291E0640213444000134424001040810210400402986
:200620001E124021060B00003444C0000493D0183AC807193A88050026F5FF103A884F112C
:200640001700C0393A880D11040180101500C03106F93F0034440001344240010408102164
:20066000044045291E104021060B00003444C0000408D0183AC807193A88050026F5FF10E9
:200680003A884F111700C0393A880D11040180101500C03106F93F00401581101700C0DFD3
:2006A0000401C0DE012381103444C0000431D0183AC807193A88050026F7BF183A884F118E
:2006C0001700C0393A880D11040180101500C03106F93F0004FFFFDE3A8809001500C0DFF2
:2006E00000788010007A8010170CA0D1170D60D1170E20D11700C0DF0401C0DE413480108B
:2007000004FDFFDE150100DC050000D93A882120344400013A880F00440080013A880BD874
:20072000048810211502C0DFC0828010C4FFFF002601C0103A8805801702C0DF170100DCC8
:200740000403C0DE3A2800F804FEFFDE150000DC1501C0DF3A882120803081103444000158
:200760003A880F003A880D103A880B80048810211701C0DF170000DC0402C0DEC18280109E
:2007800004FFFFDE1500C0DF40238110440080003A7001101700C0DF0401C0DE3A2800F89F
:2007A000344400010431102181AE80100C00D0391700C0200402C018370080183500001895
:2007C0000C20C0101E02001826F93F38060700001700C0203700C0180500C028CC008010F3
:2007E0001EF93F10440080003A2800F81709A0D02609001004FFFFDE1500C0DF3AE83E10A2
:20080000C402C0001500C0103A8805001700C0DF0401C0DE3A2800F8040FA0D0C402C000EA
:200820001500C0103A8805003A2800F804FDFFDE150140DC150000DC1502C0DF3A882330E6
:200840000C00D0393A8821301700C020370280180C10801026050010440080280700402965
:2008600035014019C4FF3F843A880B101E0200381EF53F8006080000260700801709A0D011
:20088000260200103AE83E1006010000040FA0D0C402C0001500C0103AC8058C1702C0DF70
:2008A000170140DC170000DC0403C0DE3A2800F8170B80200E1480283A88C7291612C010DC
:2008C00004FEFFDE150000DC3A882120170A80803A8809303A880D383A884B111501C0DF4F
:2008E000002E8110172F80801E0200103A88050006070000370080100C0180101EFB3F1023
:20090000C4FEBF000602000084FCBF003A2800F81701C0DF170000DC0402C0DE3A2800F80D
:2009200026020030170C802015008030170C8020260600100402C000160680182607002809
:20094000040D0021150000290604000004FDBF003A2800F884FCBF003A2800F83A880500A3
:200960003A2800F8170B802004F2FFDE150DC0DF150C00DF150BC0DD150A80DD150940DD53
:20098000150800DD1507C0DC150680DC150540DC150400DC1502C0D90E4680283AC84511FF
:2009A0003A8827281643C0113A8823203A882930041000273A882D383A882128150100D881
:2009C000170C80881701C0D80E32801817FDBFE4162A808417FEBFE03A8885900E278080A9
:2009E0003A882F0017FFBFE00E2480B8161F8084170080E03A8885900E1C80803AC805141B
:200A00003A882BB00E0180153A882B10170A40893A880DA83A8809A03A880B2C002B811017
:200A2000261B0010170880883A880B903A8809883AE83E101E180010150040DD170980887E
:200A40003A880FA03A880D803A880B903A8809883AE83E10261040B51E0F0010170000E453
:200A60003AC86DB53A8869A53A882194170080E04400C0BD3A88A59006DA3F001701C0D80D
:200A8000040400E74400C0181501C0D806CC3F001EF27FB53A880500170A0089170240D9A5
:200AA000150380D83A88C92400158110170380D80601000084FCBF00170DC0DF170C00DFF4
:200AC000170BC0DD170A80DD170940DD170800DD1707C0DC170680DC170540DC170400DC3E
:200AE000040EC0DE3A2800F8172F802004F7FFDE150280DC150000DC1508C0DF1507C0DD55
:200B0000150680DD150540DD150400DD1503C0DC150140DC3A882120040D8024260B001051
:200B20003700C0100C08C018370080150C1080B5370000150C2000A53700C0140C40C09CD5
:200B4000370040150C8040AD060500003A882B003A8827003A8829003A882D003A8807000C
:200B600017304084440080001E0D80881E0C00181731008117328080173FC085150D0081E1
:200B80003AC8091144000021150E00813A880BB840328110150F80801510C0850601000013
:200BA0003A8823001733C080440080001E1180181E1000B017340081173580803A910688EC
:200BC000173FC0853AC805113A88ED9044008010150180B03A88C780150000B1170E0019FC
:200BE0003A880BB84400408C40328110150280B01503C0B51736C080440080001E11801871
:200C00001E1000A017370081173880803A910688173F80853AC805113A88E990440080100D
:200C2000150180A03A88C780150000A1170E00193A880BB04400408C40328110150280A0BA
:200C4000150380A51739C080440080001E1180181E100098173A0081173B80803A910688F9
:200C6000173F00853AC805113A88E79044008010150180983A88C78015000099170E001951
:200C80003A880BA04400408C40328110150280981503009D173CC080440080001E118018D2
:200CA0001E1000A8173D0081173E80803A910688173FC0843AC805113A88E590440080101E
:200CC000150180903A88C78015000091170E00193A880B984400408C403281101502809062
:200CE0001503C094040A60D13A880980150C40841708C0DF1707C0DD170680DD170540DDED
:200D0000170400DD1703C0DC170280DC170140DC170000DC0409C0DE0116811004FDFFDE58
:200D2000150000DCF4020004150140DC1502C0DF3A88232004982B84172F8088370080107B
:200D4000CC0080102605001044000001C4FF3F84800C81101EF83F8004E3BF001702C0DFE1
:200D6000170140DC170000DC0403C0DE3A2800F804FDFFDE150000DCF4020004150140DC52
:200D80001502C0DF3A88232004982B84172F8088370080100C0480101E060010440000011F
:200DA000C4FF3F84800C81101EF83F8004E3BF00060100003A8805001702C0DF170140DC5B
:200DC000170000DC0403C0DE3A2800F8170B80200E2F8028172F802004FDFFDE150140DC84
:200DE0001502C0DF150000DC3A882320262A0010172E80201E280010173F8020C4FFBF1024
:200E00003A7044111E2600103A882128C0D180101E240010172F8088040180103700C01017
:200E20002C003C193420C000C4FFFF183AB0C6203500C010172FC0880401C0183700801834
:200E40003A880B800E010080C4004081BAD00B282C00BC10341C40293AB08A283500401999
:200E60003A880988C0D180103A88098800D78010172FC0880401C018370040193400040110
:200E8000C4FF3F213AB00829350000190605000084FCBF003A2800F844FBBF00060100001D
:200EA00084FABF001702C0DF170140DC170000DC0403C0DE3A2800F804FDFFDE150000DC48
:200EC000F4020004150140DC1502C0DF3A88232004982B84172F8088370080100C0280102D
:200EE0001E06001044000001C4FF3F84800C81101EF83F8004E3BF00060100003A8805008D
:200F00001702C0DF170140DC170000DC0403C0DE3A2800F8170B802004F4FFDE150480DCE7
:200F2000150BC0DF150A00DF1509C0DD150880DD150740DD150600DD1505C0DC150340DCA4
:200F4000150200DC170C80DC0E4E80283A8823300E4C80303AC88511164A8014172F80208A
:200F60003A88272026490010172E80201E4700103A882F38C0D180103A8821101E450010DF
:200F8000172F8098040180103700C0102C003C193420C000C4FFFF183AB0C6203500C01013
:200FA0003A882B00C4FF3F0704FFBF05262D0090150000DFCC0000893A884BBD1E0F002031
:200FC0000401C0893A708E3D3AC8693C0E0100953A8829903A880DA03A8809D81501C0D9C7
:200FE000002E81101701C0D93A8807883A882BAD3AC825953A882338060F00003AC8078916
:201000000401401C3A70A28D3A8805913AC8E9880E0100153A8829103AC829A13A880DA071
:201020003A8809D91501C0D8002E81101701C0D83A882BAD3AC82595170A80983A88C710C7
:20104000170080D8350080183A880998C0D180101E0300103A88099880EB801026D33F10F9
:201060003A882110172F809804018010370000113400C400C4FFFF183AB0C6203500C0109B
:201080000604000084FCBF000603000044FBBF00060100003A880580170BC0DF170A00DFF1
:2010A0001709C0DD170880DD170740DD170600DD1705C0DC170480DC170340DC170200DC68
:2010C000040CC0DE3A2800F8B466460104FEFFDE44666629150000DC1501C0DF3A882120E6
:2010E000C04181102610001034006001B49939013A880700C4FF7F29C4991921C4FF7F29C6
:201100001EFE3F284400C0183A88218116FBBF18440140013A880980804D8110C4FFBF1023
:201120001EFE3F1006050000440140013A880980804D8110C4FFBF1016FEBF003A880500DE
:201140001701C0DF170000DC0402C0DE3A2800F83A2800F83A2800F83A8805303A2800F8E2
:2011600026020020170280201E1000101709A0D02609001004FFFFDE1500C0DF3AE83E105D
:201180008405C0001500C01084FABF001700C0DF0401C0DE3A2800F8040FA0D08405C00065
:2011A0001500C01084FABF003A2800F81700802815014021150080201700802815010011E2
:2011C000150000293A8805003A2800F804FEFFDE040A60D1150000DC1501C0DF3A882120E9
:2011E000C0238110260800101703C010260700183A880B803A8809101701C0DF170000DC3C
:201200000402C0DE3A6800183A8805001701C0DF170000DC0402C0DE3A2800F826030020B8
:2012200017048020260100103A6800103A2800F83A2800F8FA7001003A2800F804FBFFDEB5
:201240001503C0DC150280DC150140DC150000DC1504C0DF3A8827203A8823281700002C33
:20126000803081104400801426074084170200813A880D903A880B98002B81102604001010
:201280001700008406F83F003A880500060100003A8805801704C0DF1703C0DC170280DC7C
:2012A000170140DC170000DC0405C0DE3A2800F83A888D2126088021030080200300C02839
:2012C0002602C0103AC8C5103A2800F8440000214400402906F73F003A8805003A2800F876
:2012E0003A8805203A8807203A888D2126058019030000294400C01844004029C5FF3F19D9
:2013000006FA3F003A2800F83A8805200700C010260200184400801006FC3F003AC8051109
:201320003A2800F8161B00203A880F00161600283A880D202E1A0029040880004400C000ED
:2013400006010000260D00103A884B29C4FFBF103A88C71836FB3F293A8805002607001835
:201360003A880500360240313AC84D313AB0C4107AD006187AD00A281EFA3F18260100380D
:201380003AC885003A2800F83AC84B015C00C03906E73F003AC809014400C00106E33F0064
:2013A0004400C00006EE3F00161700203A880F003A880520161200282E16002904088001A7
:2013C0004400C00006010000260A00303A884B29C4FFBF313A88C71836FB3F29260500183C
:2013E0007AD00618360140113AC845117AD00A281EFB3F18260100383AC885003A2800F879
:201400003AC84B0106EC3F003AC809014400C00106E73F004400C00006F13F003A880D20E7
:201420002E15002916140028040880004400C00006020000260E0010160500283A884B2999
:20144000C4FFBF103A88C71836FA3F29260800183A880500360240313AC84D313AB0C410CD
:201460007AD006187AD00A281EFA3F183A2800F83A8805003A2800F84400C00006F43F0061
:201480003A8805202E12002916110028040880014400C00006020000260C0030160500286F
:2014A0003A884B29C4FFBF313A88C71836FA3F29260600187AD00618360140113AC845117E
:2014C0007AD00A281EFB3F183A2800F83A2800F84400C00006F73F003A8805002607002018
:2014E0004C00C0207AD00820260100183A8845113A884B291EFA3F203A2800F83A2800F896
:20150000554853412052312E300A0D00010101010101010101010000000000000000000078
:201520000000000000000000000000000000000000000000000000000000000000010101A8
:2015400001010100010203040506070809000000000000000000000000000000000000005B
:2015600000000000000000000000000000000000000000000A0B0C0D0E0F00002F646576B2
:201580002F6F6E636869705F666C6173685F305F64617461000000002F6465762F6E756CBA
:2015A0006C00000000000000000000009C401001000000000000000064090801B00808019B
:2015C00020090801CC0D0801140F08010000080100E00400000000000000000000000000DE
:2015E0000000000000000000000000000000000000000000000000000000000000000000EB
:201600000000000000000000000000000000000000000000000000000000000000000000CA
:201620000000000000000000000000000000000000000000000000000000000000000000AA
:2016400000000000000000000000000000000000000000000000000000000000000000008A
:20166000509010010100000000000000FF3F00000100000000400000FF7F0000010000007A
:2016800000800000FFC701000100000000C80100FFAF02000100000000B00200FFDF0400F4
:2016A00000080000F44110010000000000000000F44110010000000000000000F441100150
:2016C00000000000000000000000000000000000000000003042100130421001B8401001FB
:2016E0000000000000000000000000005811080100000000000000000000000004FF000075
:20170000209010012442100124421001FFFFFFFFF4411001F441100138421001384210017C
:2017200000000000444210014442100100000000000000000000000000000000000000007B
:20174000000000000000000000000000000000000000000000000000000000000000000089
:20176000000000000000000000000000000000000000000000000000000000000000000069
:20178000000000000000000000000000000000000000000000000000000000000000000049
:2017A000000000000000000000000000000000000000000000000000000000000000000029
:020000024000BC
:00000001FF
